{
  "_format": "hh-sol-artifact-1",
  "contractName": "ugclevel",
  "sourceName": "contracts/ugclevel.sol",
  "abi": [
    {
      "inputs": [],
      "stateMutability": "nonpayable",
      "type": "constructor"
    },
    {
      "anonymous": false,
      "inputs": [
        {
          "indexed": true,
          "internalType": "address",
          "name": "owner",
          "type": "address"
        },
        {
          "indexed": true,
          "internalType": "address",
          "name": "approved",
          "type": "address"
        },
        {
          "indexed": true,
          "internalType": "uint256",
          "name": "tokenId",
          "type": "uint256"
        }
      ],
      "name": "Approval",
      "type": "event"
    },
    {
      "anonymous": false,
      "inputs": [
        {
          "indexed": true,
          "internalType": "address",
          "name": "owner",
          "type": "address"
        },
        {
          "indexed": true,
          "internalType": "address",
          "name": "operator",
          "type": "address"
        },
        {
          "indexed": false,
          "internalType": "bool",
          "name": "approved",
          "type": "bool"
        }
      ],
      "name": "ApprovalForAll",
      "type": "event"
    },
    {
      "anonymous": false,
      "inputs": [
        {
          "indexed": true,
          "internalType": "address",
          "name": "previousOwner",
          "type": "address"
        },
        {
          "indexed": true,
          "internalType": "address",
          "name": "newOwner",
          "type": "address"
        }
      ],
      "name": "OwnershipTransferred",
      "type": "event"
    },
    {
      "anonymous": false,
      "inputs": [
        {
          "indexed": true,
          "internalType": "address",
          "name": "from",
          "type": "address"
        },
        {
          "indexed": true,
          "internalType": "address",
          "name": "to",
          "type": "address"
        },
        {
          "indexed": true,
          "internalType": "uint256",
          "name": "tokenId",
          "type": "uint256"
        }
      ],
      "name": "Transfer",
      "type": "event"
    },
    {
      "inputs": [
        {
          "internalType": "address",
          "name": "to",
          "type": "address"
        },
        {
          "internalType": "uint256",
          "name": "tokenId",
          "type": "uint256"
        }
      ],
      "name": "approve",
      "outputs": [],
      "stateMutability": "nonpayable",
      "type": "function"
    },
    {
      "inputs": [
        {
          "internalType": "address",
          "name": "owner",
          "type": "address"
        }
      ],
      "name": "balanceOf",
      "outputs": [
        {
          "internalType": "uint256",
          "name": "",
          "type": "uint256"
        }
      ],
      "stateMutability": "view",
      "type": "function"
    },
    {
      "inputs": [
        {
          "internalType": "uint256",
          "name": "tokenId",
          "type": "uint256"
        }
      ],
      "name": "getApproved",
      "outputs": [
        {
          "internalType": "address",
          "name": "",
          "type": "address"
        }
      ],
      "stateMutability": "view",
      "type": "function"
    },
    {
      "inputs": [
        {
          "internalType": "address",
          "name": "_owner",
          "type": "address"
        }
      ],
      "name": "highestTokenId",
      "outputs": [
        {
          "internalType": "uint256",
          "name": "",
          "type": "uint256"
        }
      ],
      "stateMutability": "view",
      "type": "function"
    },
    {
      "inputs": [
        {
          "internalType": "address",
          "name": "owner",
          "type": "address"
        },
        {
          "internalType": "address",
          "name": "operator",
          "type": "address"
        }
      ],
      "name": "isApprovedForAll",
      "outputs": [
        {
          "internalType": "bool",
          "name": "",
          "type": "bool"
        }
      ],
      "stateMutability": "view",
      "type": "function"
    },
    {
      "inputs": [],
      "name": "mint",
      "outputs": [],
      "stateMutability": "nonpayable",
      "type": "function"
    },
    {
      "inputs": [],
      "name": "name",
      "outputs": [
        {
          "internalType": "string",
          "name": "",
          "type": "string"
        }
      ],
      "stateMutability": "view",
      "type": "function"
    },
    {
      "inputs": [],
      "name": "owner",
      "outputs": [
        {
          "internalType": "address",
          "name": "",
          "type": "address"
        }
      ],
      "stateMutability": "view",
      "type": "function"
    },
    {
      "inputs": [
        {
          "internalType": "uint256",
          "name": "tokenId",
          "type": "uint256"
        }
      ],
      "name": "ownerOf",
      "outputs": [
        {
          "internalType": "address",
          "name": "",
          "type": "address"
        }
      ],
      "stateMutability": "view",
      "type": "function"
    },
    {
      "inputs": [],
      "name": "renounceOwnership",
      "outputs": [],
      "stateMutability": "nonpayable",
      "type": "function"
    },
    {
      "inputs": [
        {
          "internalType": "address",
          "name": "from",
          "type": "address"
        },
        {
          "internalType": "address",
          "name": "to",
          "type": "address"
        },
        {
          "internalType": "uint256",
          "name": "tokenId",
          "type": "uint256"
        }
      ],
      "name": "safeTransferFrom",
      "outputs": [],
      "stateMutability": "nonpayable",
      "type": "function"
    },
    {
      "inputs": [
        {
          "internalType": "address",
          "name": "from",
          "type": "address"
        },
        {
          "internalType": "address",
          "name": "to",
          "type": "address"
        },
        {
          "internalType": "uint256",
          "name": "tokenId",
          "type": "uint256"
        },
        {
          "internalType": "bytes",
          "name": "data",
          "type": "bytes"
        }
      ],
      "name": "safeTransferFrom",
      "outputs": [],
      "stateMutability": "nonpayable",
      "type": "function"
    },
    {
      "inputs": [
        {
          "internalType": "address",
          "name": "operator",
          "type": "address"
        },
        {
          "internalType": "bool",
          "name": "approved",
          "type": "bool"
        }
      ],
      "name": "setApprovalForAll",
      "outputs": [],
      "stateMutability": "nonpayable",
      "type": "function"
    },
    {
      "inputs": [
        {
          "internalType": "string",
          "name": "_newBaseURI",
          "type": "string"
        }
      ],
      "name": "setBaseURI",
      "outputs": [],
      "stateMutability": "nonpayable",
      "type": "function"
    },
    {
      "inputs": [
        {
          "internalType": "bytes4",
          "name": "interfaceId",
          "type": "bytes4"
        }
      ],
      "name": "supportsInterface",
      "outputs": [
        {
          "internalType": "bool",
          "name": "",
          "type": "bool"
        }
      ],
      "stateMutability": "view",
      "type": "function"
    },
    {
      "inputs": [],
      "name": "symbol",
      "outputs": [
        {
          "internalType": "string",
          "name": "",
          "type": "string"
        }
      ],
      "stateMutability": "view",
      "type": "function"
    },
    {
      "inputs": [
        {
          "internalType": "uint256",
          "name": "index",
          "type": "uint256"
        }
      ],
      "name": "tokenByIndex",
      "outputs": [
        {
          "internalType": "uint256",
          "name": "",
          "type": "uint256"
        }
      ],
      "stateMutability": "view",
      "type": "function"
    },
    {
      "inputs": [
        {
          "internalType": "address",
          "name": "owner",
          "type": "address"
        },
        {
          "internalType": "uint256",
          "name": "index",
          "type": "uint256"
        }
      ],
      "name": "tokenOfOwnerByIndex",
      "outputs": [
        {
          "internalType": "uint256",
          "name": "",
          "type": "uint256"
        }
      ],
      "stateMutability": "view",
      "type": "function"
    },
    {
      "inputs": [
        {
          "internalType": "uint256",
          "name": "tokenId",
          "type": "uint256"
        }
      ],
      "name": "tokenURI",
      "outputs": [
        {
          "internalType": "string",
          "name": "",
          "type": "string"
        }
      ],
      "stateMutability": "view",
      "type": "function"
    },
    {
      "inputs": [],
      "name": "totalSupply",
      "outputs": [
        {
          "internalType": "uint256",
          "name": "",
          "type": "uint256"
        }
      ],
      "stateMutability": "view",
      "type": "function"
    },
    {
      "inputs": [
        {
          "internalType": "address",
          "name": "from",
          "type": "address"
        },
        {
          "internalType": "address",
          "name": "to",
          "type": "address"
        },
        {
          "internalType": "uint256",
          "name": "tokenId",
          "type": "uint256"
        }
      ],
      "name": "transferFrom",
      "outputs": [],
      "stateMutability": "nonpayable",
      "type": "function"
    },
    {
      "inputs": [
        {
          "internalType": "address",
          "name": "newOwner",
          "type": "address"
        }
      ],
      "name": "transferOwnership",
      "outputs": [],
      "stateMutability": "nonpayable",
      "type": "function"
    }
  ],
  "bytecode": "0x608060405260405180608001604052806052815260200162003c4260529139600b90816200002e919062000492565b503480156200003c57600080fd5b506040518060400160405280600881526020017f7567636c6576656c0000000000000000000000000000000000000000000000008152506040518060400160405280600581526020017f554347314c0000000000000000000000000000000000000000000000000000008152508160009081620000ba919062000492565b508060019081620000cc919062000492565b505050620000ef620000e36200014a60201b60201c565b6200015260201b60201c565b734e71a2e537b7f9d9413d3991d37958c0b5e1e503600c60006101000a81548173ffffffffffffffffffffffffffffffffffffffff021916908373ffffffffffffffffffffffffffffffffffffffff16021790555062000579565b600033905090565b6000600a60009054906101000a900473ffffffffffffffffffffffffffffffffffffffff16905081600a60006101000a81548173ffffffffffffffffffffffffffffffffffffffff021916908373ffffffffffffffffffffffffffffffffffffffff1602179055508173ffffffffffffffffffffffffffffffffffffffff168173ffffffffffffffffffffffffffffffffffffffff167f8be0079c531659141344cd1fd0a4f28419497f9722a3daafe3b4186f6b6457e060405160405180910390a35050565b600081519050919050565b7f4e487b7100000000000000000000000000000000000000000000000000000000600052604160045260246000fd5b7f4e487b7100000000000000000000000000000000000000000000000000000000600052602260045260246000fd5b600060028204905060018216806200029a57607f821691505b602082108103620002b057620002af62000252565b5b50919050565b60008190508160005260206000209050919050565b60006020601f8301049050919050565b600082821b905092915050565b6000600883026200031a7fffffffffffffffffffffffffffffffffffffffffffffffffffffffffffffffff82620002db565b620003268683620002db565b95508019841693508086168417925050509392505050565b6000819050919050565b6000819050919050565b6000620003736200036d62000367846200033e565b62000348565b6200033e565b9050919050565b6000819050919050565b6200038f8362000352565b620003a76200039e826200037a565b848454620002e8565b825550505050565b600090565b620003be620003af565b620003cb81848462000384565b505050565b5b81811015620003f357620003e7600082620003b4565b600181019050620003d1565b5050565b601f82111562000442576200040c81620002b6565b6200041784620002cb565b8101602085101562000427578190505b6200043f6200043685620002cb565b830182620003d0565b50505b505050565b600082821c905092915050565b6000620004676000198460080262000447565b1980831691505092915050565b600062000482838362000454565b9150826002028217905092915050565b6200049d8262000218565b67ffffffffffffffff811115620004b957620004b862000223565b5b620004c5825462000281565b620004d2828285620003f7565b600060209050601f8311600181146200050a5760008415620004f5578287015190505b62000501858262000474565b86555062000571565b601f1984166200051a86620002b6565b60005b8281101562000544578489015182556001820191506020850194506020810190506200051d565b8683101562000564578489015162000560601f89168262000454565b8355505b6001600288020188555050505b505050505050565b6136b980620005896000396000f3fe608060405234801561001057600080fd5b50600436106101425760003560e01c806355f804b3116100b857806395d89b411161007c57806395d89b4114610375578063a22cb46514610393578063b88d4fde146103af578063c87b56dd146103cb578063e985e9c5146103fb578063f2fde38b1461042b57610142565b806355f804b3146102d15780636352211e146102ed57806370a082311461031d578063715018a61461034d5780638da5cb5b1461035757610142565b806318160ddd1161010a57806318160ddd146101eb57806323b872dd146102095780632f745c591461022557806342842e0e146102555780634f6ccce7146102715780634fa16376146102a157610142565b806301ffc9a71461014757806306fdde0314610177578063081812fc14610195578063095ea7b3146101c55780631249c58b146101e1575b600080fd5b610161600480360381019061015c919061216c565b610447565b60405161016e91906121b4565b60405180910390f35b61017f6104c1565b60405161018c919061225f565b60405180910390f35b6101af60048036038101906101aa91906122b7565b610553565b6040516101bc9190612325565b60405180910390f35b6101df60048036038101906101da919061236c565b610599565b005b6101e96106b0565b005b6101f36107d6565b60405161020091906123bb565b60405180910390f35b610223600480360381019061021e91906123d6565b6107e3565b005b61023f600480360381019061023a919061236c565b610843565b60405161024c91906123bb565b60405180910390f35b61026f600480360381019061026a91906123d6565b6108e8565b005b61028b600480360381019061028691906122b7565b610908565b60405161029891906123bb565b60405180910390f35b6102bb60048036038101906102b69190612429565b610979565b6040516102c891906123bb565b60405180910390f35b6102eb60048036038101906102e6919061258b565b6109db565b005b610307600480360381019061030291906122b7565b6109f6565b6040516103149190612325565b60405180910390f35b61033760048036038101906103329190612429565b610aa7565b60405161034491906123bb565b60405180910390f35b610355610b5e565b005b61035f610b72565b60405161036c9190612325565b60405180910390f35b61037d610b9c565b60405161038a919061225f565b60405180910390f35b6103ad60048036038101906103a89190612600565b610c2e565b005b6103c960048036038101906103c491906126e1565b610c44565b005b6103e560048036038101906103e091906122b7565b610ca6565b6040516103f2919061225f565b60405180910390f35b61041560048036038101906104109190612764565b610d0e565b60405161042291906121b4565b60405180910390f35b61044560048036038101906104409190612429565b610da2565b005b60007f780e9d63000000000000000000000000000000000000000000000000000000007bffffffffffffffffffffffffffffffffffffffffffffffffffffffff1916827bffffffffffffffffffffffffffffffffffffffffffffffffffffffff191614806104ba57506104b982610e25565b5b9050919050565b6060600080546104d0906127d3565b80601f01602080910402602001604051908101604052809291908181526020018280546104fc906127d3565b80156105495780601f1061051e57610100808354040283529160200191610549565b820191906000526020600020905b81548152906001019060200180831161052c57829003601f168201915b5050505050905090565b600061055e82610f07565b6004600083815260200190815260200160002060009054906101000a900473ffffffffffffffffffffffffffffffffffffffff169050919050565b60006105a4826109f6565b90508073ffffffffffffffffffffffffffffffffffffffff168373ffffffffffffffffffffffffffffffffffffffff1603610614576040517f08c379a000000000000000000000000000000000000000000000000000000000815260040161060b90612876565b60405180910390fd5b8073ffffffffffffffffffffffffffffffffffffffff16610633610f52565b73ffffffffffffffffffffffffffffffffffffffff16148061066257506106618161065c610f52565b610d0e565b5b6106a1576040517f08c379a000000000000000000000000000000000000000000000000000000000815260040161069890612908565b60405180910390fd5b6106ab8383610f5a565b505050565b600060016106bc6107d6565b6106c69190612957565b905060006106d333610979565b905060008111156107c857600c60009054906101000a900473ffffffffffffffffffffffffffffffffffffffff1673ffffffffffffffffffffffffffffffffffffffff166323b872dd3330671bc16d674ec800006040518463ffffffff1660e01b8152600401610745939291906129d0565b6020604051808303816000875af1158015610764573d6000803e3d6000fd5b505050506040513d601f19601f820116820180604052508101906107889190612a1c565b6107c7576040517f08c379a00000000000000000000000000000000000000000000000000000000081526004016107be90612a95565b60405180910390fd5b5b6107d23383611013565b5050565b6000600880549050905090565b6107f46107ee610f52565b82611031565b610833576040517f08c379a000000000000000000000000000000000000000000000000000000000815260040161082a90612b27565b60405180910390fd5b61083e8383836110c6565b505050565b600061084e83610aa7565b821061088f576040517f08c379a000000000000000000000000000000000000000000000000000000000815260040161088690612bb9565b60405180910390fd5b600660008473ffffffffffffffffffffffffffffffffffffffff1673ffffffffffffffffffffffffffffffffffffffff168152602001908152602001600020600083815260200190815260200160002054905092915050565b61090383838360405180602001604052806000815250610c44565b505050565b60006109126107d6565b8210610953576040517f08c379a000000000000000000000000000000000000000000000000000000000815260040161094a90612c4b565b60405180910390fd5b6008828154811061096757610966612c6b565b5b90600052602060002001549050919050565b60008061098583610aa7565b9050600080600190505b8281116109d05760006109ae866001846109a99190612c9a565b610843565b9050828111156109bc578092505b5080806109c890612cce565b91505061098f565b508092505050919050565b6109e361132c565b80600b90816109f29190612eb8565b5050565b6000806002600084815260200190815260200160002060009054906101000a900473ffffffffffffffffffffffffffffffffffffffff169050600073ffffffffffffffffffffffffffffffffffffffff168173ffffffffffffffffffffffffffffffffffffffff1603610a9e576040517f08c379a0000000000000000000000000000000000000000000000000000000008152600401610a9590612fd6565b60405180910390fd5b80915050919050565b60008073ffffffffffffffffffffffffffffffffffffffff168273ffffffffffffffffffffffffffffffffffffffff1603610b17576040517f08c379a0000000000000000000000000000000000000000000000000000000008152600401610b0e90613068565b60405180910390fd5b600360008373ffffffffffffffffffffffffffffffffffffffff1673ffffffffffffffffffffffffffffffffffffffff168152602001908152602001600020549050919050565b610b6661132c565b610b7060006113aa565b565b6000600a60009054906101000a900473ffffffffffffffffffffffffffffffffffffffff16905090565b606060018054610bab906127d3565b80601f0160208091040260200160405190810160405280929190818152602001828054610bd7906127d3565b8015610c245780601f10610bf957610100808354040283529160200191610c24565b820191906000526020600020905b815481529060010190602001808311610c0757829003601f168201915b5050505050905090565b610c40610c39610f52565b8383611470565b5050565b610c55610c4f610f52565b83611031565b610c94576040517f08c379a0000000000000000000000000000000000000000000000000000000008152600401610c8b90612b27565b60405180910390fd5b610ca0848484846115dc565b50505050565b6060610cb182610f07565b6000610cbb611638565b90506000815111610cdb5760405180602001604052806000815250610d06565b80610ce5846116ca565b604051602001610cf69291906130c4565b6040516020818303038152906040525b915050919050565b6000600560008473ffffffffffffffffffffffffffffffffffffffff1673ffffffffffffffffffffffffffffffffffffffff16815260200190815260200160002060008373ffffffffffffffffffffffffffffffffffffffff1673ffffffffffffffffffffffffffffffffffffffff16815260200190815260200160002060009054906101000a900460ff16905092915050565b610daa61132c565b600073ffffffffffffffffffffffffffffffffffffffff168173ffffffffffffffffffffffffffffffffffffffff1603610e19576040517f08c379a0000000000000000000000000000000000000000000000000000000008152600401610e109061315a565b60405180910390fd5b610e22816113aa565b50565b60007f80ac58cd000000000000000000000000000000000000000000000000000000007bffffffffffffffffffffffffffffffffffffffffffffffffffffffff1916827bffffffffffffffffffffffffffffffffffffffffffffffffffffffff19161480610ef057507f5b5e139f000000000000000000000000000000000000000000000000000000007bffffffffffffffffffffffffffffffffffffffffffffffffffffffff1916827bffffffffffffffffffffffffffffffffffffffffffffffffffffffff1916145b80610f005750610eff8261182a565b5b9050919050565b610f1081611894565b610f4f576040517f08c379a0000000000000000000000000000000000000000000000000000000008152600401610f4690612fd6565b60405180910390fd5b50565b600033905090565b816004600083815260200190815260200160002060006101000a81548173ffffffffffffffffffffffffffffffffffffffff021916908373ffffffffffffffffffffffffffffffffffffffff160217905550808273ffffffffffffffffffffffffffffffffffffffff16610fcd836109f6565b73ffffffffffffffffffffffffffffffffffffffff167f8c5be1e5ebec7d5bd14f71427d1e84f3dd0314c0f7b2291e5b200ac8c7c3b92560405160405180910390a45050565b61102d828260405180602001604052806000815250611900565b5050565b60008061103d836109f6565b90508073ffffffffffffffffffffffffffffffffffffffff168473ffffffffffffffffffffffffffffffffffffffff16148061107f575061107e8185610d0e565b5b806110bd57508373ffffffffffffffffffffffffffffffffffffffff166110a584610553565b73ffffffffffffffffffffffffffffffffffffffff16145b91505092915050565b8273ffffffffffffffffffffffffffffffffffffffff166110e6826109f6565b73ffffffffffffffffffffffffffffffffffffffff161461113c576040517f08c379a0000000000000000000000000000000000000000000000000000000008152600401611133906131ec565b60405180910390fd5b600073ffffffffffffffffffffffffffffffffffffffff168273ffffffffffffffffffffffffffffffffffffffff16036111ab576040517f08c379a00000000000000000000000000000000000000000000000000000000081526004016111a29061327e565b60405180910390fd5b6111b683838361195b565b6111c1600082610f5a565b6001600360008573ffffffffffffffffffffffffffffffffffffffff1673ffffffffffffffffffffffffffffffffffffffff16815260200190815260200160002060008282546112119190612c9a565b925050819055506001600360008473ffffffffffffffffffffffffffffffffffffffff1673ffffffffffffffffffffffffffffffffffffffff16815260200190815260200160002060008282546112689190612957565b92505081905550816002600083815260200190815260200160002060006101000a81548173ffffffffffffffffffffffffffffffffffffffff021916908373ffffffffffffffffffffffffffffffffffffffff160217905550808273ffffffffffffffffffffffffffffffffffffffff168473ffffffffffffffffffffffffffffffffffffffff167fddf252ad1be2c89b69c2b068fc378daa952ba7f163c4a11628f55a4df523b3ef60405160405180910390a4611327838383611a6d565b505050565b611334610f52565b73ffffffffffffffffffffffffffffffffffffffff16611352610b72565b73ffffffffffffffffffffffffffffffffffffffff16146113a8576040517f08c379a000000000000000000000000000000000000000000000000000000000815260040161139f906132ea565b60405180910390fd5b565b6000600a60009054906101000a900473ffffffffffffffffffffffffffffffffffffffff16905081600a60006101000a81548173ffffffffffffffffffffffffffffffffffffffff021916908373ffffffffffffffffffffffffffffffffffffffff1602179055508173ffffffffffffffffffffffffffffffffffffffff168173ffffffffffffffffffffffffffffffffffffffff167f8be0079c531659141344cd1fd0a4f28419497f9722a3daafe3b4186f6b6457e060405160405180910390a35050565b8173ffffffffffffffffffffffffffffffffffffffff168373ffffffffffffffffffffffffffffffffffffffff16036114de576040517f08c379a00000000000000000000000000000000000000000000000000000000081526004016114d590613356565b60405180910390fd5b80600560008573ffffffffffffffffffffffffffffffffffffffff1673ffffffffffffffffffffffffffffffffffffffff16815260200190815260200160002060008473ffffffffffffffffffffffffffffffffffffffff1673ffffffffffffffffffffffffffffffffffffffff16815260200190815260200160002060006101000a81548160ff0219169083151502179055508173ffffffffffffffffffffffffffffffffffffffff168373ffffffffffffffffffffffffffffffffffffffff167f17307eab39ab6107e8899845ad3d59bd9653f200f220920489ca2b5937696c31836040516115cf91906121b4565b60405180910390a3505050565b6115e78484846110c6565b6115f384848484611a72565b611632576040517f08c379a0000000000000000000000000000000000000000000000000000000008152600401611629906133e8565b60405180910390fd5b50505050565b6060600b8054611647906127d3565b80601f0160208091040260200160405190810160405280929190818152602001828054611673906127d3565b80156116c05780601f10611695576101008083540402835291602001916116c0565b820191906000526020600020905b8154815290600101906020018083116116a357829003601f168201915b5050505050905090565b606060008203611711576040518060400160405280600181526020017f30000000000000000000000000000000000000000000000000000000000000008152509050611825565b600082905060005b6000821461174357808061172c90612cce565b915050600a8261173c9190613437565b9150611719565b60008167ffffffffffffffff81111561175f5761175e612460565b5b6040519080825280601f01601f1916602001820160405280156117915781602001600182028036833780820191505090505b5090505b6000851461181e576001826117aa9190612c9a565b9150600a856117b99190613468565b60306117c59190612957565b60f81b8183815181106117db576117da612c6b565b5b60200101907effffffffffffffffffffffffffffffffffffffffffffffffffffffffffffff1916908160001a905350600a856118179190613437565b9450611795565b8093505050505b919050565b60007f01ffc9a7000000000000000000000000000000000000000000000000000000007bffffffffffffffffffffffffffffffffffffffffffffffffffffffff1916827bffffffffffffffffffffffffffffffffffffffffffffffffffffffff1916149050919050565b60008073ffffffffffffffffffffffffffffffffffffffff166002600084815260200190815260200160002060009054906101000a900473ffffffffffffffffffffffffffffffffffffffff1673ffffffffffffffffffffffffffffffffffffffff1614159050919050565b61190a8383611bf9565b6119176000848484611a72565b611956576040517f08c379a000000000000000000000000000000000000000000000000000000000815260040161194d906133e8565b60405180910390fd5b505050565b611966838383611dd2565b600073ffffffffffffffffffffffffffffffffffffffff168373ffffffffffffffffffffffffffffffffffffffff16036119a8576119a381611dd7565b6119e7565b8173ffffffffffffffffffffffffffffffffffffffff168373ffffffffffffffffffffffffffffffffffffffff16146119e6576119e58382611e20565b5b5b600073ffffffffffffffffffffffffffffffffffffffff168273ffffffffffffffffffffffffffffffffffffffff1603611a2957611a2481611f8d565b611a68565b8273ffffffffffffffffffffffffffffffffffffffff168273ffffffffffffffffffffffffffffffffffffffff1614611a6757611a66828261205e565b5b5b505050565b505050565b6000611a938473ffffffffffffffffffffffffffffffffffffffff166120dd565b15611bec578373ffffffffffffffffffffffffffffffffffffffff1663150b7a02611abc610f52565b8786866040518563ffffffff1660e01b8152600401611ade94939291906134ee565b6020604051808303816000875af1925050508015611b1a57506040513d601f19601f82011682018060405250810190611b17919061354f565b60015b611b9c573d8060008114611b4a576040519150601f19603f3d011682016040523d82523d6000602084013e611b4f565b606091505b506000815103611b94576040517f08c379a0000000000000000000000000000000000000000000000000000000008152600401611b8b906133e8565b60405180910390fd5b805181602001fd5b63150b7a0260e01b7bffffffffffffffffffffffffffffffffffffffffffffffffffffffff1916817bffffffffffffffffffffffffffffffffffffffffffffffffffffffff191614915050611bf1565b600190505b949350505050565b600073ffffffffffffffffffffffffffffffffffffffff168273ffffffffffffffffffffffffffffffffffffffff1603611c68576040517f08c379a0000000000000000000000000000000000000000000000000000000008152600401611c5f906135c8565b60405180910390fd5b611c7181611894565b15611cb1576040517f08c379a0000000000000000000000000000000000000000000000000000000008152600401611ca890613634565b60405180910390fd5b611cbd6000838361195b565b6001600360008473ffffffffffffffffffffffffffffffffffffffff1673ffffffffffffffffffffffffffffffffffffffff1681526020019081526020016000206000828254611d0d9190612957565b92505081905550816002600083815260200190815260200160002060006101000a81548173ffffffffffffffffffffffffffffffffffffffff021916908373ffffffffffffffffffffffffffffffffffffffff160217905550808273ffffffffffffffffffffffffffffffffffffffff16600073ffffffffffffffffffffffffffffffffffffffff167fddf252ad1be2c89b69c2b068fc378daa952ba7f163c4a11628f55a4df523b3ef60405160405180910390a4611dce60008383611a6d565b5050565b505050565b6008805490506009600083815260200190815260200160002081905550600881908060018154018082558091505060019003906000526020600020016000909190919091505550565b60006001611e2d84610aa7565b611e379190612c9a565b9050600060076000848152602001908152602001600020549050818114611f1c576000600660008673ffffffffffffffffffffffffffffffffffffffff1673ffffffffffffffffffffffffffffffffffffffff168152602001908152602001600020600084815260200190815260200160002054905080600660008773ffffffffffffffffffffffffffffffffffffffff1673ffffffffffffffffffffffffffffffffffffffff168152602001908152602001600020600084815260200190815260200160002081905550816007600083815260200190815260200160002081905550505b6007600084815260200190815260200160002060009055600660008573ffffffffffffffffffffffffffffffffffffffff1673ffffffffffffffffffffffffffffffffffffffff16815260200190815260200160002060008381526020019081526020016000206000905550505050565b60006001600880549050611fa19190612c9a565b9050600060096000848152602001908152602001600020549050600060088381548110611fd157611fd0612c6b565b5b906000526020600020015490508060088381548110611ff357611ff2612c6b565b5b90600052602060002001819055508160096000838152602001908152602001600020819055506009600085815260200190815260200160002060009055600880548061204257612041613654565b5b6001900381819060005260206000200160009055905550505050565b600061206983610aa7565b905081600660008573ffffffffffffffffffffffffffffffffffffffff1673ffffffffffffffffffffffffffffffffffffffff168152602001908152602001600020600083815260200190815260200160002081905550806007600084815260200190815260200160002081905550505050565b6000808273ffffffffffffffffffffffffffffffffffffffff163b119050919050565b6000604051905090565b600080fd5b600080fd5b60007fffffffff0000000000000000000000000000000000000000000000000000000082169050919050565b61214981612114565b811461215457600080fd5b50565b60008135905061216681612140565b92915050565b6000602082840312156121825761218161210a565b5b600061219084828501612157565b91505092915050565b60008115159050919050565b6121ae81612199565b82525050565b60006020820190506121c960008301846121a5565b92915050565b600081519050919050565b600082825260208201905092915050565b60005b838110156122095780820151818401526020810190506121ee565b60008484015250505050565b6000601f19601f8301169050919050565b6000612231826121cf565b61223b81856121da565b935061224b8185602086016121eb565b61225481612215565b840191505092915050565b600060208201905081810360008301526122798184612226565b905092915050565b6000819050919050565b61229481612281565b811461229f57600080fd5b50565b6000813590506122b18161228b565b92915050565b6000602082840312156122cd576122cc61210a565b5b60006122db848285016122a2565b91505092915050565b600073ffffffffffffffffffffffffffffffffffffffff82169050919050565b600061230f826122e4565b9050919050565b61231f81612304565b82525050565b600060208201905061233a6000830184612316565b92915050565b61234981612304565b811461235457600080fd5b50565b60008135905061236681612340565b92915050565b600080604083850312156123835761238261210a565b5b600061239185828601612357565b92505060206123a2858286016122a2565b9150509250929050565b6123b581612281565b82525050565b60006020820190506123d060008301846123ac565b92915050565b6000806000606084860312156123ef576123ee61210a565b5b60006123fd86828701612357565b935050602061240e86828701612357565b925050604061241f868287016122a2565b9150509250925092565b60006020828403121561243f5761243e61210a565b5b600061244d84828501612357565b91505092915050565b600080fd5b600080fd5b7f4e487b7100000000000000000000000000000000000000000000000000000000600052604160045260246000fd5b61249882612215565b810181811067ffffffffffffffff821117156124b7576124b6612460565b5b80604052505050565b60006124ca612100565b90506124d6828261248f565b919050565b600067ffffffffffffffff8211156124f6576124f5612460565b5b6124ff82612215565b9050602081019050919050565b82818337600083830152505050565b600061252e612529846124db565b6124c0565b90508281526020810184848401111561254a5761254961245b565b5b61255584828561250c565b509392505050565b600082601f83011261257257612571612456565b5b813561258284826020860161251b565b91505092915050565b6000602082840312156125a1576125a061210a565b5b600082013567ffffffffffffffff8111156125bf576125be61210f565b5b6125cb8482850161255d565b91505092915050565b6125dd81612199565b81146125e857600080fd5b50565b6000813590506125fa816125d4565b92915050565b600080604083850312156126175761261661210a565b5b600061262585828601612357565b9250506020612636858286016125eb565b9150509250929050565b600067ffffffffffffffff82111561265b5761265a612460565b5b61266482612215565b9050602081019050919050565b600061268461267f84612640565b6124c0565b9050828152602081018484840111156126a05761269f61245b565b5b6126ab84828561250c565b509392505050565b600082601f8301126126c8576126c7612456565b5b81356126d8848260208601612671565b91505092915050565b600080600080608085870312156126fb576126fa61210a565b5b600061270987828801612357565b945050602061271a87828801612357565b935050604061272b878288016122a2565b925050606085013567ffffffffffffffff81111561274c5761274b61210f565b5b612758878288016126b3565b91505092959194509250565b6000806040838503121561277b5761277a61210a565b5b600061278985828601612357565b925050602061279a85828601612357565b9150509250929050565b7f4e487b7100000000000000000000000000000000000000000000000000000000600052602260045260246000fd5b600060028204905060018216806127eb57607f821691505b6020821081036127fe576127fd6127a4565b5b50919050565b7f4552433732313a20617070726f76616c20746f2063757272656e74206f776e6560008201527f7200000000000000000000000000000000000000000000000000000000000000602082015250565b60006128606021836121da565b915061286b82612804565b604082019050919050565b6000602082019050818103600083015261288f81612853565b9050919050565b7f4552433732313a20617070726f76652063616c6c6572206973206e6f7420746f60008201527f6b656e206f776e6572206e6f7220617070726f76656420666f7220616c6c0000602082015250565b60006128f2603e836121da565b91506128fd82612896565b604082019050919050565b60006020820190508181036000830152612921816128e5565b9050919050565b7f4e487b7100000000000000000000000000000000000000000000000000000000600052601160045260246000fd5b600061296282612281565b915061296d83612281565b925082820190508082111561298557612984612928565b5b92915050565b6000819050919050565b6000819050919050565b60006129ba6129b56129b08461298b565b612995565b612281565b9050919050565b6129ca8161299f565b82525050565b60006060820190506129e56000830186612316565b6129f26020830185612316565b6129ff60408301846129c1565b949350505050565b600081519050612a16816125d4565b92915050565b600060208284031215612a3257612a3161210a565b5b6000612a4084828501612a07565b91505092915050565b7f5472616e73666572206f662032204e4f544520746f6b656e73206661696c6564600082015250565b6000612a7f6020836121da565b9150612a8a82612a49565b602082019050919050565b60006020820190508181036000830152612aae81612a72565b9050919050565b7f4552433732313a2063616c6c6572206973206e6f7420746f6b656e206f776e6560008201527f72206e6f7220617070726f766564000000000000000000000000000000000000602082015250565b6000612b11602e836121da565b9150612b1c82612ab5565b604082019050919050565b60006020820190508181036000830152612b4081612b04565b9050919050565b7f455243373231456e756d657261626c653a206f776e657220696e646578206f7560008201527f74206f6620626f756e6473000000000000000000000000000000000000000000602082015250565b6000612ba3602b836121da565b9150612bae82612b47565b604082019050919050565b60006020820190508181036000830152612bd281612b96565b9050919050565b7f455243373231456e756d657261626c653a20676c6f62616c20696e646578206f60008201527f7574206f6620626f756e64730000000000000000000000000000000000000000602082015250565b6000612c35602c836121da565b9150612c4082612bd9565b604082019050919050565b60006020820190508181036000830152612c6481612c28565b9050919050565b7f4e487b7100000000000000000000000000000000000000000000000000000000600052603260045260246000fd5b6000612ca582612281565b9150612cb083612281565b9250828203905081811115612cc857612cc7612928565b5b92915050565b6000612cd982612281565b91507fffffffffffffffffffffffffffffffffffffffffffffffffffffffffffffffff8203612d0b57612d0a612928565b5b600182019050919050565b60008190508160005260206000209050919050565b60006020601f8301049050919050565b600082821b905092915050565b600060088302612d787fffffffffffffffffffffffffffffffffffffffffffffffffffffffffffffffff82612d3b565b612d828683612d3b565b95508019841693508086168417925050509392505050565b6000612db5612db0612dab84612281565b612995565b612281565b9050919050565b6000819050919050565b612dcf83612d9a565b612de3612ddb82612dbc565b848454612d48565b825550505050565b600090565b612df8612deb565b612e03818484612dc6565b505050565b5b81811015612e2757612e1c600082612df0565b600181019050612e09565b5050565b601f821115612e6c57612e3d81612d16565b612e4684612d2b565b81016020851015612e55578190505b612e69612e6185612d2b565b830182612e08565b50505b505050565b600082821c905092915050565b6000612e8f60001984600802612e71565b1980831691505092915050565b6000612ea88383612e7e565b9150826002028217905092915050565b612ec1826121cf565b67ffffffffffffffff811115612eda57612ed9612460565b5b612ee482546127d3565b612eef828285612e2b565b600060209050601f831160018114612f225760008415612f10578287015190505b612f1a8582612e9c565b865550612f82565b601f198416612f3086612d16565b60005b82811015612f5857848901518255600182019150602085019450602081019050612f33565b86831015612f755784890151612f71601f891682612e7e565b8355505b6001600288020188555050505b505050505050565b7f4552433732313a20696e76616c696420746f6b656e2049440000000000000000600082015250565b6000612fc06018836121da565b9150612fcb82612f8a565b602082019050919050565b60006020820190508181036000830152612fef81612fb3565b9050919050565b7f4552433732313a2061646472657373207a65726f206973206e6f74206120766160008201527f6c6964206f776e65720000000000000000000000000000000000000000000000602082015250565b60006130526029836121da565b915061305d82612ff6565b604082019050919050565b6000602082019050818103600083015261308181613045565b9050919050565b600081905092915050565b600061309e826121cf565b6130a88185613088565b93506130b88185602086016121eb565b80840191505092915050565b60006130d08285613093565b91506130dc8284613093565b91508190509392505050565b7f4f776e61626c653a206e6577206f776e657220697320746865207a65726f206160008201527f6464726573730000000000000000000000000000000000000000000000000000602082015250565b60006131446026836121da565b915061314f826130e8565b604082019050919050565b6000602082019050818103600083015261317381613137565b9050919050565b7f4552433732313a207472616e736665722066726f6d20696e636f72726563742060008201527f6f776e6572000000000000000000000000000000000000000000000000000000602082015250565b60006131d66025836121da565b91506131e18261317a565b604082019050919050565b60006020820190508181036000830152613205816131c9565b9050919050565b7f4552433732313a207472616e7366657220746f20746865207a65726f2061646460008201527f7265737300000000000000000000000000000000000000000000000000000000602082015250565b60006132686024836121da565b91506132738261320c565b604082019050919050565b600060208201905081810360008301526132978161325b565b9050919050565b7f4f776e61626c653a2063616c6c6572206973206e6f7420746865206f776e6572600082015250565b60006132d46020836121da565b91506132df8261329e565b602082019050919050565b60006020820190508181036000830152613303816132c7565b9050919050565b7f4552433732313a20617070726f766520746f2063616c6c657200000000000000600082015250565b60006133406019836121da565b915061334b8261330a565b602082019050919050565b6000602082019050818103600083015261336f81613333565b9050919050565b7f4552433732313a207472616e7366657220746f206e6f6e20455243373231526560008201527f63656976657220696d706c656d656e7465720000000000000000000000000000602082015250565b60006133d26032836121da565b91506133dd82613376565b604082019050919050565b60006020820190508181036000830152613401816133c5565b9050919050565b7f4e487b7100000000000000000000000000000000000000000000000000000000600052601260045260246000fd5b600061344282612281565b915061344d83612281565b92508261345d5761345c613408565b5b828204905092915050565b600061347382612281565b915061347e83612281565b92508261348e5761348d613408565b5b828206905092915050565b600081519050919050565b600082825260208201905092915050565b60006134c082613499565b6134ca81856134a4565b93506134da8185602086016121eb565b6134e381612215565b840191505092915050565b60006080820190506135036000830187612316565b6135106020830186612316565b61351d60408301856123ac565b818103606083015261352f81846134b5565b905095945050505050565b60008151905061354981612140565b92915050565b6000602082840312156135655761356461210a565b5b60006135738482850161353a565b91505092915050565b7f4552433732313a206d696e7420746f20746865207a65726f2061646472657373600082015250565b60006135b26020836121da565b91506135bd8261357c565b602082019050919050565b600060208201905081810360008301526135e1816135a5565b9050919050565b7f4552433732313a20746f6b656e20616c7265616479206d696e74656400000000600082015250565b600061361e601c836121da565b9150613629826135e8565b602082019050919050565b6000602082019050818103600083015261364d81613611565b9050919050565b7f4e487b7100000000000000000000000000000000000000000000000000000000600052603160045260246000fdfea26469706673582212201f250ac508368c4622915d8233d054d4ba22af7af64f8e72971696a9037e62ad64736f6c6343000811003368747470733a2f2f666972656261736573746f726167652e676f6f676c65617069732e636f6d2f76302f622f756e7469746c656463616e746f67616d65312e61707073706f742e636f6d2f6f2f6a736f6e2f",
  "linkReferences": {},
  "deployedLinkReferences": {}
}